{
  "_format": "hh-sol-artifact-1",
  "contractName": "Flashloan",
  "sourceName": "contracts/flashloan.sol",
  "abi": [
    {
      "inputs": [],
      "name": "getNumber",
      "outputs": [
        {
          "internalType": "uint256",
          "name": "",
          "type": "uint256"
        }
      ],
      "stateMutability": "view",
      "type": "function"
    },
    {
      "inputs": [
        {
          "internalType": "uint256",
          "name": "_value",
          "type": "uint256"
        }
      ],
      "name": "setNumber",
      "outputs": [],
      "stateMutability": "nonpayable",
      "type": "function"
    },
    {
      "inputs": [],
      "name": "value",
      "outputs": [
        {
          "internalType": "uint256",
          "name": "",
          "type": "uint256"
        }
      ],
      "stateMutability": "view",
      "type": "function"
    }
  ],
  "bytecode": "0x608060405234801561001057600080fd5b5061017f806100206000396000f3fe608060405234801561001057600080fd5b50600436106100415760003560e01c80633fa4f245146100465780633fb5c1cb14610064578063f2c9ecd814610080575b600080fd5b61004e61009e565b60405161005b9190610108565b60405180910390f35b61007e600480360381019061007991906100cc565b6100a4565b005b6100886100ae565b6040516100959190610108565b60405180910390f35b60005481565b8060008190555050565b60008054905090565b6000813590506100c681610132565b92915050565b6000602082840312156100e2576100e161012d565b5b60006100f0848285016100b7565b91505092915050565b61010281610123565b82525050565b600060208201905061011d60008301846100f9565b92915050565b6000819050919050565b600080fd5b61013b81610123565b811461014657600080fd5b5056fea26469706673582212206a9ae5429f1766e922866ca666655a00af0d87937e22e08d5d187d7635438d3764736f6c63430008070033",
  "linkReferences": {},
  "deployedLinkReferences": {}
}